{
  "abi": [
    {
      "inputs": [
        {
          "internalType": "uint256[]",
          "name": "times",
          "type": "uint256[]"
        }
      ],
      "stateMutability": "nonpayable",
      "type": "constructor"
    },
    {
      "anonymous": false,
      "inputs": [
        {
          "indexed": true,
          "internalType": "address",
          "name": "submitter",
          "type": "address"
        },
        {
          "indexed": true,
          "internalType": "uint256",
          "name": "entryCompressed",
          "type": "uint256"
        },
        {
          "indexed": true,
          "internalType": "uint48",
          "name": "entryIndex",
          "type": "uint48"
        },
        {
          "indexed": false,
          "internalType": "string",
          "name": "bracketName",
          "type": "string"
        }
      ],
      "name": "EntrySubmitted",
      "type": "event"
    },
    {
      "anonymous": false,
      "inputs": [
        {
          "indexed": true,
          "internalType": "address",
          "name": "previousOwner",
          "type": "address"
        },
        {
          "indexed": true,
          "internalType": "address",
          "name": "newOwner",
          "type": "address"
        }
      ],
      "name": "OwnershipTransferred",
      "type": "event"
    },
    {
      "inputs": [
        {
          "internalType": "address",
          "name": "oracle",
          "type": "address"
        }
      ],
      "name": "addOracle",
      "outputs": [],
      "stateMutability": "nonpayable",
      "type": "function"
    },
    {
      "inputs": [
        {
          "internalType": "bytes16",
          "name": "picksOrResults",
          "type": "bytes16"
        }
      ],
      "name": "arePicksOrResultsValid",
      "outputs": [
        {
          "internalType": "bool",
          "name": "",
          "type": "bool"
        }
      ],
      "stateMutability": "pure",
      "type": "function"
    },
    {
      "inputs": [
        {
          "internalType": "uint256",
          "name": "entryCompressed",
          "type": "uint256"
        }
      ],
      "name": "claimTopEntry",
      "outputs": [],
      "stateMutability": "nonpayable",
      "type": "function"
    },
    {
      "inputs": [],
      "name": "closeContestAndPayWinners",
      "outputs": [],
      "stateMutability": "nonpayable",
      "type": "function"
    },
    {
      "inputs": [
        {
          "internalType": "bytes16",
          "name": "winners",
          "type": "bytes16"
        },
        {
          "internalType": "uint8",
          "name": "scoreA",
          "type": "uint8"
        },
        {
          "internalType": "uint8",
          "name": "scoreB",
          "type": "uint8"
        }
      ],
      "name": "closeOracleVoting",
      "outputs": [],
      "stateMutability": "nonpayable",
      "type": "function"
    },
    {
      "inputs": [],
      "name": "currentState",
      "outputs": [
        {
          "internalType": "enum EthMadness.ContestState",
          "name": "",
          "type": "uint8"
        }
      ],
      "stateMutability": "view",
      "type": "function"
    },
    {
      "inputs": [
        {
          "internalType": "uint256",
          "name": "",
          "type": "uint256"
        }
      ],
      "name": "entries",
      "outputs": [
        {
          "internalType": "address",
          "name": "submitter",
          "type": "address"
        },
        {
          "internalType": "uint48",
          "name": "entryIndex",
          "type": "uint48"
        }
      ],
      "stateMutability": "view",
      "type": "function"
    },
    {
      "inputs": [],
      "name": "finalResult",
      "outputs": [
        {
          "internalType": "bytes16",
          "name": "winners",
          "type": "bytes16"
        },
        {
          "internalType": "uint8",
          "name": "scoreA",
          "type": "uint8"
        },
        {
          "internalType": "uint8",
          "name": "scoreB",
          "type": "uint8"
        },
        {
          "internalType": "bool",
          "name": "isFinal",
          "type": "bool"
        }
      ],
      "stateMutability": "view",
      "type": "function"
    },
    {
      "inputs": [],
      "name": "getEntryCount",
      "outputs": [
        {
          "internalType": "uint256",
          "name": "",
          "type": "uint256"
        }
      ],
      "stateMutability": "view",
      "type": "function"
    },
    {
      "inputs": [],
      "name": "getOracleCount",
      "outputs": [
        {
          "internalType": "uint256",
          "name": "",
          "type": "uint256"
        }
      ],
      "stateMutability": "view",
      "type": "function"
    },
    {
      "inputs": [],
      "name": "getTransitionTimes",
      "outputs": [
        {
          "internalType": "uint256",
          "name": "",
          "type": "uint256"
        },
        {
          "internalType": "uint256",
          "name": "",
          "type": "uint256"
        },
        {
          "internalType": "uint256",
          "name": "",
          "type": "uint256"
        },
        {
          "internalType": "uint256",
          "name": "",
          "type": "uint256"
        }
      ],
      "stateMutability": "view",
      "type": "function"
    },
    {
      "inputs": [],
      "name": "markTournamentFinished",
      "outputs": [],
      "stateMutability": "nonpayable",
      "type": "function"
    },
    {
      "inputs": [],
      "name": "markTournamentInProgress",
      "outputs": [],
      "stateMutability": "nonpayable",
      "type": "function"
    },
    {
      "inputs": [
        {
          "internalType": "address",
          "name": "",
          "type": "address"
        }
      ],
      "name": "oracleVotes",
      "outputs": [
        {
          "internalType": "bytes16",
          "name": "winners",
          "type": "bytes16"
        },
        {
          "internalType": "uint8",
          "name": "scoreA",
          "type": "uint8"
        },
        {
          "internalType": "uint8",
          "name": "scoreB",
          "type": "uint8"
        },
        {
          "internalType": "bool",
          "name": "isFinal",
          "type": "bool"
        }
      ],
      "stateMutability": "view",
      "type": "function"
    },
    {
      "inputs": [
        {
          "internalType": "uint256",
          "name": "",
          "type": "uint256"
        }
      ],
      "name": "oracles",
      "outputs": [
        {
          "internalType": "address",
          "name": "",
          "type": "address"
        }
      ],
      "stateMutability": "view",
      "type": "function"
    },
    {
      "inputs": [],
      "name": "owner",
      "outputs": [
        {
          "internalType": "address",
          "name": "",
          "type": "address"
        }
      ],
      "stateMutability": "view",
      "type": "function"
    },
    {
      "inputs": [],
      "name": "renounceOwnership",
      "outputs": [],
      "stateMutability": "nonpayable",
      "type": "function"
    },
    {
      "inputs": [
        {
          "internalType": "bytes16",
          "name": "picks",
          "type": "bytes16"
        },
        {
          "internalType": "uint64",
          "name": "scoreA",
          "type": "uint64"
        },
        {
          "internalType": "uint64",
          "name": "scoreB",
          "type": "uint64"
        },
        {
          "internalType": "string",
          "name": "bracketName",
          "type": "string"
        }
      ],
      "name": "submitEntry",
      "outputs": [],
      "stateMutability": "nonpayable",
      "type": "function"
    },
    {
      "inputs": [
        {
          "internalType": "uint256",
          "name": "oracleIndex",
          "type": "uint256"
        },
        {
          "internalType": "bytes16",
          "name": "winners",
          "type": "bytes16"
        },
        {
          "internalType": "uint8",
          "name": "scoreA",
          "type": "uint8"
        },
        {
          "internalType": "uint8",
          "name": "scoreB",
          "type": "uint8"
        }
      ],
      "name": "submitOracleVote",
      "outputs": [],
      "stateMutability": "nonpayable",
      "type": "function"
    },
    {
      "inputs": [
        {
          "internalType": "uint256",
          "name": "",
          "type": "uint256"
        }
      ],
      "name": "topThree",
      "outputs": [
        {
          "internalType": "uint48",
          "name": "entryIndex",
          "type": "uint48"
        },
        {
          "internalType": "uint32",
          "name": "score",
          "type": "uint32"
        },
        {
          "internalType": "uint64",
          "name": "difference",
          "type": "uint64"
        },
        {
          "internalType": "address",
          "name": "submitter",
          "type": "address"
        }
      ],
      "stateMutability": "view",
      "type": "function"
    },
    {
      "inputs": [
        {
          "internalType": "address",
          "name": "newOwner",
          "type": "address"
        }
      ],
      "name": "transferOwnership",
      "outputs": [],
      "stateMutability": "nonpayable",
      "type": "function"
    },
    {
      "inputs": [
        {
          "internalType": "uint256",
          "name": "",
          "type": "uint256"
        }
      ],
      "name": "transitionTimes",
      "outputs": [
        {
          "internalType": "uint256",
          "name": "",
          "type": "uint256"
        }
      ],
      "stateMutability": "view",
      "type": "function"
    }
  ],
  "bytecode": {
    "object": "0x60806040526000805465ffffffffffff60a01b191690553480156200002357600080fd5b506040516200285b3803806200285b83398101604081905262000046916200029d565b6200005133620001b6565b60408051602081019091523381526200006f90600590600162000206565b5080516004146200007f57600080fd5b8060008151811062000095576200009562000366565b60200260200101516002600060016004811115620000b757620000b76200037c565b81526020019081526020016000208190555080600181518110620000df57620000df62000366565b602002602001015160026000600260048111156200010157620001016200037c565b8152602001908152602001600020819055508060028151811062000129576200012962000366565b602002602001015160026000600360048111156200014b576200014b6200037c565b8152602001908152602001600020819055508060038151811062000173576200017362000366565b6020026020010151600260006004808111156200019457620001946200037c565b8152602081019190915260400160002055506003805460ff1916905562000392565b600080546001600160a01b038381166001600160a01b0319831681178455604051919092169283917f8be0079c531659141344cd1fd0a4f28419497f9722a3daafe3b4186f6b6457e09190a35050565b8280548282559060005260206000209081019282156200025e579160200282015b828111156200025e57825182546001600160a01b0319166001600160a01b0390911617825560209092019160019091019062000227565b506200026c92915062000270565b5090565b5b808211156200026c576000815560010162000271565b634e487b7160e01b600052604160045260246000fd5b60006020808385031215620002b157600080fd5b82516001600160401b0380821115620002c957600080fd5b818501915085601f830112620002de57600080fd5b815181811115620002f357620002f362000287565b8060051b604051601f19603f830116810181811085821117156200031b576200031b62000287565b6040529182528482019250838101850191888311156200033a57600080fd5b938501935b828510156200035a578451845293850193928501926200033f565b98975050505050505050565b634e487b7160e01b600052603260045260246000fd5b634e487b7160e01b600052602160045260246000fd5b6124b980620003a26000396000f3fe608060405234801561001057600080fd5b50600436106101425760003560e01c806382545026116100b8578063c104688c1161007c578063c104688c14610428578063df5dd1a51461043b578063e9d43e1b1461044e578063ecd869a71461046e578063f2fde38b14610476578063f3a8286f1461048957600080fd5b806382545026146102cf5780638da5cb5b146102f25780639ec31bba14610303578063b30906d414610316578063b4c9aee21461037657600080fd5b80635347f96e1161010a5780635347f96e146101e65780635b69a7d81461025f5780635dfa3e081461028a578063715018a61461029d5780637a360e65146102a5578063823445fa146102bc57600080fd5b80630c3f6acf14610147578063114c74271461016a57806325a17545146101745780633f4e4251146101cc5780634f25f7fd146101de575b600080fd5b6003546101549060ff1681565b6040516101619190611beb565b60405180910390f35b6101726104b8565b005b610187610182366004611c13565b610527565b6040805165ffffffffffff909516855263ffffffff90931660208501526001600160401b03909116918301919091526001600160a01b03166060820152608001610161565b6005545b604051908152602001610161565b610172610579565b61022b6101f4366004611c2c565b600460205260009081526040902054608081901b9060ff600160801b8204811691600160881b8104821691600160901b9091041684565b604080516001600160801b031995909516855260ff9384166020860152919092169083015215156060820152608001610161565b61027261026d366004611c13565b6105fb565b6040516001600160a01b039091168152602001610161565b610172610298366004611ca1565b610625565b6101726108b4565b600054600160a01b900465ffffffffffff166101d0565b6101726102ca366004611d94565b6108e8565b6102e26102dd366004611de1565b610abc565b6040519015158152602001610161565b6000546001600160a01b0316610272565b610172610311366004611c13565b610b29565b610350610324366004611c13565b6001602052600090815260409020546001600160a01b03811690600160a01b900465ffffffffffff1682565b604080516001600160a01b03909316835265ffffffffffff909116602083015201610161565b60026020527fe90b7bceb6e7df5418fb78d8ee546e97c83a08bbccc01a0644d599ccd2a7c2e0547f679795a0195a1b76cdebb7c51d74e058aee92919b8c3389af86ef24535e8a28c547f88601476d11616a71c5be67555bd1dff4b1cbf21533d2669b768b61518cfe1c35460046000527fee60d0579bcffd98e668647d59fec1ff86a7fb340ce572e844f234ae73a6918f54604080519485526020850193909352918301526060820152608001610161565b610172610436366004611dfc565b610c35565b610172610449366004611c2c565b610e75565b6101d061045c366004611c13565b60026020526000908152604090205481565b610172610fc3565b610172610484366004611c2c565b610fcd565b60065461022b90608081901b9060ff600160801b8204811691600160881b8104821691600160901b9091041684565b6104c26001611068565b6005546105255760405162461bcd60e51b815260206004820152602660248201527f4d7573742068617665206174206c656173742031206f7261636c6520726567696044820152651cdd195c995960d21b60648201526084015b60405180910390fd5b565b6007816003811061053757600080fd5b60020201805460019091015465ffffffffffff82169250600160301b820463ffffffff1691600160501b90046001600160401b0316906001600160a01b031684565b6105836004611068565b6008546001600160a01b03166105ab5760405162461bcd60e51b815260040161051c90611e55565b600a546001600160a01b03166105d35760405162461bcd60e51b815260040161051c90611e55565b600c546001600160a01b03166105255760405162461bcd60e51b815260040161051c90611e55565b6005818154811061060b57600080fd5b6000918252602090912001546001600160a01b0316905081565b600060035460ff16600481111561063e5761063e611bd5565b146106995760405162461bcd60e51b815260206004820152602560248201527f4d75737420626520696e20746865206f70656e20666f7220656e747269657320604482015264737461746560d81b606482015260840161051c565b6106a284610abc565b6106ee5760405162461bcd60e51b815260206004820181905260248201527f54686520737570706c696564207069636b7320617265206e6f742076616c6964604482015260640161051c565b60006107076001600160401b038516600160c01b611e96565b905060006107226001600160401b038516600160801b611e96565b608087901c818417811760008181526001602052604090205492935090916001600160a01b0316156107b45760405162461bcd60e51b815260206004820152603560248201527f5468697320657861637420627261636b657420262073636f72652068617320616044820152741b1c9958591e481899595b881cdd589b5a5d1d1959605a1b606482015260840161051c565b600060149054906101000a900465ffffffffffff1665ffffffffffff1681336001600160a01b03167fdd587a5264e6486e7e7bd14d89da14e1db02b5f63b4f84ac0e657106d7722ad18860405161080b9190611eb5565b60405180910390a46040805180820182523381526000805465ffffffffffff600160a01b918290048116602080860191825287855260019052948320845181549651831684026001600160d01b03199097166001600160a01b0391909116179590951790945581549293920490911690601461088683611f0a565b91906101000a81548165ffffffffffff021916908365ffffffffffff16021790555050505050505050505050565b6000546001600160a01b031633146108de5760405162461bcd60e51b815260040161051c90611f30565b610525600061118f565b600260035460ff16600481111561090157610901611bd5565b1461095a5760405162461bcd60e51b8152602060048201526024808201527f4d75737420626520696e2077616974696e6720666f72206f7261636c657320736044820152637461746560e01b606482015260840161051c565b336001600160a01b03166005858154811061097757610977611e3f565b6000918252602090912001546001600160a01b0316146109ce5760405162461bcd60e51b81526020600482015260126024820152710aee4dedcce40dee4c2c6d8ca40d2dcc8caf60731b604482015260640161051c565b6109d783610abc565b610a1b5760405162461bcd60e51b815260206004820152601560248201527414995cdd5b1d1cc8185c99481b9bdd081d985b1a59605a1b604482015260640161051c565b60408051608080820183526001600160801b0319909516815260ff9384166020808301918252938516828401908152600160608401908152336000908152600490965293909420915182549151945193511515600160901b0260ff60901b19948716600160881b029490941661ffff60881b1995909616600160801b026001600160881b0319909216961c9590951794909417919091169190911717905550565b6000805b603f8160ff161015610b20576000610ad884836111df565b9050806001600160801b0316600214158015610afe5750806001600160801b0316600114155b15610b0d575060009392505050565b5080610b1881611f65565b915050610ac0565b50600192915050565b6003805460ff166004811115610b4157610b41611bd5565b14610b9f5760405162461bcd60e51b815260206004820152602860248201527f4d75737420626520696e207468652077616974696e6720666f722077696e6e65604482015267727320737461746560c01b606482015260840161051c565b600654600160901b900460ff16610c095760405162461bcd60e51b815260206004820152602860248201527f5468652066696e616c20726573756c74206d757374206265206d61726b656420604482015267185cc8199a5b985b60c21b606482015260840161051c565b600654610c31908290608081901b9060ff600160801b8204811691600160881b900416611237565b5050565b600260035460ff166004811115610c4e57610c4e611bd5565b14610c5857600080fd5b6000805b600554811015610d635760006004600060058481548110610c7f57610c7f611e3f565b6000918252602080832091909101546001600160a01b03168352828101939093526040918201902081516080808201845291549182901b6001600160801b0319168152600160801b820460ff90811694820194909452600160881b8204841692810192909252600160901b900490911615801560608301819052919250610d13575080516001600160801b03198781169116145b8015610d2857508460ff16816020015160ff16145b8015610d3d57508360ff16816040015160ff16145b15610d505782610d4c81611f85565b9350505b5080610d5b81611f85565b915050610c5c565b50600554600090610d75836064611e96565b610d7f9190611fb6565b905060468111610ded5760405162461bcd60e51b815260206004820152603360248201527f546f20636c6f7365206f7261636c6520766f74696e672c203e20373025206f66604482015272206f7261636c6573206d75737420616772656560681b606482015260840161051c565b610df76003611068565b505060408051608080820183526001600160801b03198616825260ff948516602083018190529390941691810182905260016060909101526006805460ff60901b19600160881b9093029290921661ffff60881b19600160801b9094026001600160881b03199093169590941c94909417171617600160901b179055565b6000546001600160a01b03163314610e9f5760405162461bcd60e51b815260040161051c90611f30565b600060035460ff166004811115610eb857610eb8611bd5565b14610f055760405162461bcd60e51b815260206004820152601960248201527f4d75737420626520616363657074696e6720656e747269657300000000000000604482015260640161051c565b610f116001600a611fca565b60055410610f715760405162461bcd60e51b815260206004820152602760248201527f4d757374206265206c657373207468616e206d6178206e756d626572206f66206044820152666f7261636c657360c81b606482015260840161051c565b600580546001810182556000919091527f036b6384b5eca791c62761152d0c79bb0604c104a5fb6f4eb0703f3154bb3db00180546001600160a01b0319166001600160a01b0392909216919091179055565b6105256002611068565b6000546001600160a01b03163314610ff75760405162461bcd60e51b815260040161051c90611f30565b6001600160a01b03811661105c5760405162461bcd60e51b815260206004820152602660248201527f4f776e61626c653a206e6577206f776e657220697320746865207a65726f206160448201526564647265737360d01b606482015260840161051c565b6110658161118f565b50565b60035460ff16600481111561107f5761107f611bd5565b61108a906001611fe1565b81600481111561109c5761109c611bd5565b146110e95760405162461bcd60e51b815260206004820152601b60248201527f43616e206f6e6c7920616476616e636520737461746520627920310000000000604482015260640161051c565b600260008260048111156110ff576110ff611bd5565b81526020019081526020016000205442116111685760405162461bcd60e51b815260206004820152602360248201527f5472616e736974696f6e2074696d65206861736e27742068617070656e6564206044820152621e595d60ea1b606482015260840161051c565b6003805482919060ff1916600183600481111561118757611187611bd5565b021790555050565b600080546001600160a01b038381166001600160a01b0319831681178455604051919092169283917f8be0079c531659141344cd1fd0a4f28419497f9722a3daafe3b4186f6b6457e09190a35050565b6000806111ed836002611ff9565b6111f89060026122ed565b611203906003612305565b9050608084901c8116611217846002611ff9565b6112229060026122ed565b61122c9082612334565b925050505b92915050565b60006003805460ff16600481111561125157611251611bd5565b146112ae5760405162461bcd60e51b815260206004820152602760248201527f4d75737420626520696e207468652077616974696e6720666f7220636c61696d6044820152667320737461746560c81b606482015260840161051c565b6000858152600160205260409020546001600160a01b03166113265760405162461bcd60e51b815260206004820152602b60248201527f54686520656e747279206d75737420686176652061637475616c6c792062656560448201526a1b881cdd589b5a5d1d195960aa1b606482015260840161051c565b6001600160801b0319608086901b166000611345600160801b88611fb6565b90506001600160401b03811661135f600160c01b89611fb6565b91506001600160401b0382166000611377858a611745565b9050600061138784848b8b6118d1565b905060006040518060800160405280600160008f815260200190815260200160002060000160149054906101000a900465ffffffffffff1665ffffffffffff1681526020018463ffffffff168152602001836001600160401b03168152602001600160008f815260200190815260200160002060000160009054906101000a90046001600160a01b03166001600160a01b0316815250905061149a81600760006003811061143757611437611e3f565b6040805160808101825260029290920292909201805465ffffffffffff81168352600160301b810463ffffffff166020840152600160501b90046001600160401b0316928201929092526001909101546001600160a01b03166060820152611952565b156116015760098054600b80546001600160401b03600160501b8085048216810263ffffffff600160301b8088048216810265ffffffffffff808a1669ffffffffffffffffffff19988916179190911767ffffffffffffffff60501b1990811694909417909755600a8054600c80546001600160a01b03199081166001600160a01b038085169190911790925560078054898104909a16909802858a049096169094029790991697909916969096179490941790911617909555600854931692909116919091179055819060005b8251600291909102919091018054602084015160408501516001600160401b0316600160501b0267ffffffffffffffff60501b1963ffffffff909216600160301b0269ffffffffffffffffffff1990931665ffffffffffff909516949094179190911716919091178155606090910151600190910180546001600160a01b039092166001600160a01b0319909216919091179055611735565b61160e8160076001611437565b1561169a57600954600b805467ffffffffffffffff60501b1969ffffffffffffffffffff1990911665ffffffffffff841617600160301b80850463ffffffff16021716600160501b928390046001600160401b0316909202919091179055600a54600c80546001600160a01b039092166001600160a01b03199092169190911790558060076001611568565b6116a78160076002611437565b15611735578051600b8054602084015160408501516001600160401b0316600160501b0267ffffffffffffffff60501b1963ffffffff909216600160301b0269ffffffffffffffffffff1990931665ffffffffffff9095169490941791909117169190911790556060810151600c80546001600160a01b039092166001600160a01b03199092169190911790555b50909a9950505050505050505050565b6000808084815b603f8160ff1610156118c65761176181611a71565b9250600061176f83836111df565b905061177b87836111df565b6001600160801b0316816001600160801b031614156117b05761179f84600261235a565b6117a9908661236f565b94506118b3565b6001600160801b038116156118b3576000816001600160801b03166002146117d95760006117dc565b60015b6117e7846002611ff9565b6117f19190612397565b90506000611800866001612397565b90505b60068160ff1610156118b057600061182461181f6001846123bc565b611ae4565b61182f906002611ff9565b61183990846123bc565b60ff1690506118496002826123df565b61185283611ae4565b61185d906002611ff9565b60ff1661186a91906123f4565b9250600061187b878560ff16611b4e565b905080156118945761188d8785611b78565b965061189b565b50506118b0565b505080806118a890611f65565b915050611803565b50505b50806118be81611f65565b91505061174c565b509195945050505050565b6000806001600160401b03808716908516116118f6576118f18487612411565b611900565b6119008685612411565b61190a9082612439565b9050846001600160401b0316836001600160401b0316116119345761192f8386612411565b61193e565b61193e8584612411565b6119489082612439565b9695505050505050565b6000816020015163ffffffff16836020015163ffffffff16111561197857506001611231565b816020015163ffffffff16836020015163ffffffff16101561199c57506000611231565b81604001516001600160401b031683604001516001600160401b031610156119c657506001611231565b81604001516001600160401b031683604001516001600160401b031610156119f057506000611231565b8151835165ffffffffffff90811691161415611a5d5760405162461bcd60e51b815260206004820152602660248201527f5468697320656e7472792068617320616c726561647920636c61696d65642061604482015265207072697a6560d01b606482015260840161051c565b5051905165ffffffffffff91821691161090565b600060208260ff161015611a8757506000919050565b60308260ff161015611a9b57506001919050565b60388260ff161015611aaf57506002919050565b603c8260ff161015611ac357506003919050565b603e8260ff161015611ad757506004919050565b506005919050565b919050565b600060ff8216611af657506000919050565b8160ff1660011415611b0a57506020919050565b8160ff1660021415611b1e57506030919050565b8160ff1660031415611b3257506038919050565b8160ff1660041415611b465750603c919050565b50603e919050565b600080611b5c83600261245b565b6001600160801b03608086901c90911616151591505092915050565b600080611b99611b8c600160f81b85611bae565b6001600160f81b03191890565b84166001600160f81b03191691505092915050565b600080611bbc836002612474565b611bca9060f886901c611e96565b60f81b949350505050565b634e487b7160e01b600052602160045260246000fd5b6020810160058310611c0d57634e487b7160e01b600052602160045260246000fd5b91905290565b600060208284031215611c2557600080fd5b5035919050565b600060208284031215611c3e57600080fd5b81356001600160a01b0381168114611c5557600080fd5b9392505050565b80356001600160801b031981168114611adf57600080fd5b80356001600160401b0381168114611adf57600080fd5b634e487b7160e01b600052604160045260246000fd5b60008060008060808587031215611cb757600080fd5b611cc085611c5c565b9350611cce60208601611c74565b9250611cdc60408601611c74565b915060608501356001600160401b0380821115611cf857600080fd5b818701915087601f830112611d0c57600080fd5b813581811115611d1e57611d1e611c8b565b604051601f8201601f19908116603f01168101908382118183101715611d4657611d46611c8b565b816040528281528a6020848701011115611d5f57600080fd5b82602086016020830137600060208483010152809550505050505092959194509250565b803560ff81168114611adf57600080fd5b60008060008060808587031215611daa57600080fd5b84359350611dba60208601611c5c565b9250611dc860408601611d83565b9150611dd660608601611d83565b905092959194509250565b600060208284031215611df357600080fd5b611c5582611c5c565b600080600060608486031215611e1157600080fd5b611e1a84611c5c565b9250611e2860208501611d83565b9150611e3660408501611d83565b90509250925092565b634e487b7160e01b600052603260045260246000fd5b6020808252601190820152704e6f7420656e6f75676820636c61696d7360781b604082015260600190565b634e487b7160e01b600052601160045260246000fd5b6000816000190483118215151615611eb057611eb0611e80565b500290565b600060208083528351808285015260005b81811015611ee257858101830151858201604001528201611ec6565b81811115611ef4576000604083870101525b50601f01601f1916929092016040019392505050565b600065ffffffffffff80831681811415611f2657611f26611e80565b6001019392505050565b6020808252818101527f4f776e61626c653a2063616c6c6572206973206e6f7420746865206f776e6572604082015260600190565b600060ff821660ff811415611f7c57611f7c611e80565b60010192915050565b6000600019821415611f9957611f99611e80565b5060010190565b634e487b7160e01b600052601260045260246000fd5b600082611fc557611fc5611fa0565b500490565b600082821015611fdc57611fdc611e80565b500390565b60008219821115611ff457611ff4611e80565b500190565b600060ff821660ff84168160ff048111821515161561201a5761201a611e80565b029392505050565b600181815b8085111561206257816001600160801b030482111561204857612048611e80565b8085161561205557918102915b93841c9390800290612027565b509250929050565b600181815b80851115612062578163ffffffff0482111561208d5761208d611e80565b8085161561209a57918102915b93841c939080029061206f565b600181815b808511156120625781600019048211156120c8576120c8611e80565b808516156120d557918102915b93841c93908002906120ac565b6000826120f157506001611231565b816120fe57506000611231565b8160018114612114576002811461211e57612152565b6001915050611231565b60ff84111561212f5761212f611e80565b6001841b91506001600160801b0382111561214c5761214c611e80565b50611231565b5060208310610133831016604e8410600b841016171561218c575081810a6001600160801b0381111561218757612187611e80565b611231565b6121968383612022565b806001600160801b030482111561201a5761201a611e80565b6000826121be57506001611231565b816121cb57506000611231565b816001811461211457600281146121e15761220c565b60ff8411156121f2576121f2611e80565b6001841b915063ffffffff82111561214c5761214c611e80565b5060208310610133831016604e8410600b841016171561223e575081810a63ffffffff81111561218757612187611e80565b612248838361206a565b8063ffffffff0482111561201a5761201a611e80565b60008261226d57506001611231565b8161227a57506000611231565b81600181146121145760028114612290576122ac565b60ff8411156122a1576122a1611e80565b50506001821b611231565b5060208310610133831016604e8410600b84101617156122cf575081810a611231565b6122d983836120a7565b806000190482111561201a5761201a611e80565b6000611c5560ff84166001600160801b0384166120e2565b60006001600160801b038083168185168183048111821515161561232b5761232b611e80565b02949350505050565b60006001600160801b038084168061234e5761234e611fa0565b92169190910492915050565b6000611c5560ff841663ffffffff84166121af565b600063ffffffff80831681851680830382111561238e5761238e611e80565b01949350505050565b600060ff821660ff84168060ff038211156123b4576123b4611e80565b019392505050565b600060ff821660ff8416808210156123d6576123d6611e80565b90039392505050565b600061ffff8084168061234e5761234e611fa0565b600061ffff80831681851680830382111561238e5761238e611e80565b60006001600160401b038381169083168181101561243157612431611e80565b039392505050565b60006001600160401b0380831681851680830382111561238e5761238e611e80565b6000611c5561ffff84166001600160801b0384166120e2565b6000611c5560ff84168361225e56fea2646970667358221220aa9f55954d6ad36d3131f4ae113fbb6cc661158e6a9ea094014eaba767016b9f64736f6c634300080a0033",
    "linkReferences": {}
  }
}