{
  "abi": [
    {
      "inputs": [],
      "stateMutability": "nonpayable",
      "type": "constructor"
    },
    {
      "anonymous": false,
      "inputs": [
        {
          "indexed": true,
          "internalType": "address",
          "name": "submitter",
          "type": "address"
        },
        {
          "indexed": true,
          "internalType": "uint256",
          "name": "entryCompressed",
          "type": "uint256"
        },
        {
          "indexed": true,
          "internalType": "uint48",
          "name": "entryIndex",
          "type": "uint48"
        },
        {
          "indexed": false,
          "internalType": "string",
          "name": "bracketName",
          "type": "string"
        }
      ],
      "name": "EntrySubmitted",
      "type": "event"
    },
    {
      "anonymous": false,
      "inputs": [
        {
          "indexed": true,
          "internalType": "address",
          "name": "previousOwner",
          "type": "address"
        },
        {
          "indexed": true,
          "internalType": "address",
          "name": "newOwner",
          "type": "address"
        }
      ],
      "name": "OwnershipTransferred",
      "type": "event"
    },
    {
      "inputs": [
        {
          "internalType": "address",
          "name": "oracle",
          "type": "address"
        }
      ],
      "name": "addOracle",
      "outputs": [],
      "stateMutability": "nonpayable",
      "type": "function"
    },
    {
      "inputs": [
        {
          "internalType": "bytes16",
          "name": "winners",
          "type": "bytes16"
        },
        {
          "internalType": "uint8",
          "name": "scoreA",
          "type": "uint8"
        },
        {
          "internalType": "uint8",
          "name": "scoreB",
          "type": "uint8"
        }
      ],
      "name": "closeOracleVoting",
      "outputs": [],
      "stateMutability": "nonpayable",
      "type": "function"
    },
    {
      "inputs": [],
      "name": "currentState",
      "outputs": [
        {
          "internalType": "enum EthMadness.ContestState",
          "name": "",
          "type": "uint8"
        }
      ],
      "stateMutability": "view",
      "type": "function"
    },
    {
      "inputs": [
        {
          "internalType": "uint256",
          "name": "",
          "type": "uint256"
        }
      ],
      "name": "entries",
      "outputs": [
        {
          "internalType": "address",
          "name": "submitter",
          "type": "address"
        },
        {
          "internalType": "uint48",
          "name": "entryIndex",
          "type": "uint48"
        }
      ],
      "stateMutability": "view",
      "type": "function"
    },
    {
      "inputs": [],
      "name": "finalResult",
      "outputs": [
        {
          "internalType": "bytes16",
          "name": "winners",
          "type": "bytes16"
        },
        {
          "internalType": "uint8",
          "name": "scoreA",
          "type": "uint8"
        },
        {
          "internalType": "uint8",
          "name": "scoreB",
          "type": "uint8"
        },
        {
          "internalType": "bool",
          "name": "isFinal",
          "type": "bool"
        }
      ],
      "stateMutability": "view",
      "type": "function"
    },
    {
      "inputs": [],
      "name": "getEntryCount",
      "outputs": [
        {
          "internalType": "uint256",
          "name": "",
          "type": "uint256"
        }
      ],
      "stateMutability": "view",
      "type": "function"
    },
    {
      "inputs": [],
      "name": "getOracleCount",
      "outputs": [
        {
          "internalType": "uint256",
          "name": "",
          "type": "uint256"
        }
      ],
      "stateMutability": "view",
      "type": "function"
    },
    {
      "inputs": [],
      "name": "markTournamentFinished",
      "outputs": [],
      "stateMutability": "nonpayable",
      "type": "function"
    },
    {
      "inputs": [],
      "name": "markTournamentInProgress",
      "outputs": [],
      "stateMutability": "nonpayable",
      "type": "function"
    },
    {
      "inputs": [
        {
          "internalType": "address",
          "name": "",
          "type": "address"
        }
      ],
      "name": "oracleVotes",
      "outputs": [
        {
          "internalType": "bytes16",
          "name": "winners",
          "type": "bytes16"
        },
        {
          "internalType": "uint8",
          "name": "scoreA",
          "type": "uint8"
        },
        {
          "internalType": "uint8",
          "name": "scoreB",
          "type": "uint8"
        },
        {
          "internalType": "bool",
          "name": "isFinal",
          "type": "bool"
        }
      ],
      "stateMutability": "view",
      "type": "function"
    },
    {
      "inputs": [
        {
          "internalType": "uint256",
          "name": "",
          "type": "uint256"
        }
      ],
      "name": "oracles",
      "outputs": [
        {
          "internalType": "address",
          "name": "",
          "type": "address"
        }
      ],
      "stateMutability": "view",
      "type": "function"
    },
    {
      "inputs": [],
      "name": "owner",
      "outputs": [
        {
          "internalType": "address",
          "name": "",
          "type": "address"
        }
      ],
      "stateMutability": "view",
      "type": "function"
    },
    {
      "inputs": [],
      "name": "renounceOwnership",
      "outputs": [],
      "stateMutability": "nonpayable",
      "type": "function"
    },
    {
      "inputs": [
        {
          "internalType": "bytes16",
          "name": "picks",
          "type": "bytes16"
        },
        {
          "internalType": "uint64",
          "name": "scoreA",
          "type": "uint64"
        },
        {
          "internalType": "uint64",
          "name": "scoreB",
          "type": "uint64"
        },
        {
          "internalType": "string",
          "name": "bracketName",
          "type": "string"
        }
      ],
      "name": "submitEntry",
      "outputs": [],
      "stateMutability": "nonpayable",
      "type": "function"
    },
    {
      "inputs": [
        {
          "internalType": "uint256",
          "name": "oracleIndex",
          "type": "uint256"
        },
        {
          "internalType": "bytes16",
          "name": "winners",
          "type": "bytes16"
        },
        {
          "internalType": "uint8",
          "name": "scoreA",
          "type": "uint8"
        },
        {
          "internalType": "uint8",
          "name": "scoreB",
          "type": "uint8"
        }
      ],
      "name": "submitOracleVote",
      "outputs": [],
      "stateMutability": "nonpayable",
      "type": "function"
    },
    {
      "inputs": [
        {
          "internalType": "address",
          "name": "newOwner",
          "type": "address"
        }
      ],
      "name": "transferOwnership",
      "outputs": [],
      "stateMutability": "nonpayable",
      "type": "function"
    }
  ],
  "bytecode": {
    "object": "0x60806040526000805465ffffffffffff60a01b1916905534801561002257600080fd5b5061002c3361004e565b604080516020810190915233815261004890600490600161009e565b50610118565b600080546001600160a01b038381166001600160a01b0319831681178455604051919092169283917f8be0079c531659141344cd1fd0a4f28419497f9722a3daafe3b4186f6b6457e09190a35050565b8280548282559060005260206000209081019282156100f3579160200282015b828111156100f357825182546001600160a01b0319166001600160a01b039091161782556020909201916001909101906100be565b506100ff929150610103565b5090565b5b808211156100ff5760008155600101610104565b6110ba806101276000396000f3fe608060405234801561001057600080fd5b50600436106101005760003560e01c8063823445fa11610097578063df5dd1a511610066578063df5dd1a5146102b1578063ecd869a7146102c4578063f2fde38b146102cc578063f3a8286f146102df57600080fd5b8063823445fa1461021a5780638da5cb5b1461022d578063b30906d41461023e578063c104688c1461029e57600080fd5b80635b69a7d8116100d35780635b69a7d8146101bd5780635dfa3e08146101e8578063715018a6146101fb5780637a360e651461020357600080fd5b80630c3f6acf14610105578063114c7427146101285780633f4e4251146101325780635347f96e14610144575b600080fd5b6002546101129060ff1681565b60405161011f9190610cdd565b60405180910390f35b61013061030e565b005b6004545b60405190815260200161011f565b610189610152366004610d05565b600360205260009081526040902054608081901b9060ff600160801b8204811691600160881b8104821691600160901b9091041684565b604080516001600160801b031995909516855260ff938416602086015291909216908301521515606082015260800161011f565b6101d06101cb366004610d35565b61037d565b6040516001600160a01b03909116815260200161011f565b6101306101f6366004610d99565b6103a7565b6101306105e3565b600054600160a01b900465ffffffffffff16610136565b610130610228366004610e8d565b610617565b6000546001600160a01b03166101d0565b61027861024c366004610d35565b6001602052600090815260409020546001600160a01b03811690600160a01b900465ffffffffffff1682565b604080516001600160a01b03909316835265ffffffffffff90911660208301520161011f565b6101306102ac366004610eda565b61079d565b6101306102bf366004610d05565b6109dc565b610130610b2a565b6101306102da366004610d05565b610b34565b60055461018990608081901b9060ff600160801b8204811691600160881b8104821691600160901b9091041684565b6103186001610bcf565b60045461037b5760405162461bcd60e51b815260206004820152602660248201527f4d7573742068617665206174206c656173742031206f7261636c6520726567696044820152651cdd195c995960d21b60648201526084015b60405180910390fd5b565b6004818154811061038d57600080fd5b6000918252602090912001546001600160a01b0316905081565b600060025460ff1660048111156103c0576103c0610cc7565b1461041b5760405162461bcd60e51b815260206004820152602560248201527f4d75737420626520696e20746865206f70656e20666f7220656e747269657320604482015264737461746560d81b6064820152608401610372565b600061043567ffffffffffffffff8516600160c01b610f33565b9050600061045167ffffffffffffffff8516600160801b610f33565b608087901c818417811760008181526001602052604090205492935090916001600160a01b0316156104e35760405162461bcd60e51b815260206004820152603560248201527f5468697320657861637420627261636b657420262073636f72652068617320616044820152741b1c9958591e481899595b881cdd589b5a5d1d1959605a1b6064820152608401610372565b600060149054906101000a900465ffffffffffff1665ffffffffffff1681336001600160a01b03167fdd587a5264e6486e7e7bd14d89da14e1db02b5f63b4f84ac0e657106d7722ad18860405161053a9190610f52565b60405180910390a46040805180820182523381526000805465ffffffffffff600160a01b918290048116602080860191825287855260019052948320845181549651831684026001600160d01b03199097166001600160a01b039190911617959095179094558154929392049091169060146105b583610fa7565b91906101000a81548165ffffffffffff021916908365ffffffffffff16021790555050505050505050505050565b6000546001600160a01b0316331461060d5760405162461bcd60e51b815260040161037290610fcd565b61037b6000610c77565b6002805460ff16600481111561062f5761062f610cc7565b146106885760405162461bcd60e51b8152602060048201526024808201527f4d75737420626520696e2077616974696e6720666f72206f7261636c657320736044820152637461746560e01b6064820152608401610372565b336001600160a01b0316600485815481106106a5576106a5611002565b6000918252602090912001546001600160a01b0316146106fc5760405162461bcd60e51b81526020600482015260126024820152710aee4dedcce40dee4c2c6d8ca40d2dcc8caf60731b6044820152606401610372565b60408051608080820183526001600160801b0319909516815260ff9384166020808301918252938516828401908152600160608401908152336000908152600390965293909420915182549151945193511515600160901b0260ff60901b19948716600160881b029490941661ffff60881b1995909616600160801b026001600160881b0319909216961c9590951794909417919091169190911717905550565b6002805460ff1660048111156107b5576107b5610cc7565b146107bf57600080fd5b6000805b6004548110156108ca57600060036000600484815481106107e6576107e6611002565b6000918252602080832091909101546001600160a01b03168352828101939093526040918201902081516080808201845291549182901b6001600160801b0319168152600160801b820460ff90811694820194909452600160881b8204841692810192909252600160901b90049091161580156060830181905291925061087a575080516001600160801b03198781169116145b801561088f57508460ff16816020015160ff16145b80156108a457508360ff16816040015160ff16145b156108b757826108b381611018565b9350505b50806108c281611018565b9150506107c3565b506004546000906108dc836064610f33565b6108e69190611033565b9050604681116109545760405162461bcd60e51b815260206004820152603360248201527f546f20636c6f7365206f7261636c6520766f74696e672c203e20373025206f66604482015272206f7261636c6573206d75737420616772656560681b6064820152608401610372565b61095e6003610bcf565b505060408051608080820183526001600160801b03198616825260ff948516602083018190529390941691810182905260016060909101526005805460ff60901b19600160881b9093029290921661ffff60881b19600160801b9094026001600160881b03199093169590941c94909417171617600160901b179055565b6000546001600160a01b03163314610a065760405162461bcd60e51b815260040161037290610fcd565b600060025460ff166004811115610a1f57610a1f610cc7565b14610a6c5760405162461bcd60e51b815260206004820152601960248201527f4d75737420626520616363657074696e6720656e7472696573000000000000006044820152606401610372565b610a786001600a611055565b60045410610ad85760405162461bcd60e51b815260206004820152602760248201527f4d757374206265206c657373207468616e206d6178206e756d626572206f66206044820152666f7261636c657360c81b6064820152608401610372565b600480546001810182556000919091527f8a35acfbc15ff81a39ae7d344fd709f28e8600b4aa8c65c6b64bfe7fe36bd19b0180546001600160a01b0319166001600160a01b0392909216919091179055565b61037b6002610bcf565b6000546001600160a01b03163314610b5e5760405162461bcd60e51b815260040161037290610fcd565b6001600160a01b038116610bc35760405162461bcd60e51b815260206004820152602660248201527f4f776e61626c653a206e6577206f776e657220697320746865207a65726f206160448201526564647265737360d01b6064820152608401610372565b610bcc81610c77565b50565b60025460ff166004811115610be657610be6610cc7565b610bf190600161106c565b816004811115610c0357610c03610cc7565b14610c505760405162461bcd60e51b815260206004820152601b60248201527f43616e206f6e6c7920616476616e6365207374617465206279203100000000006044820152606401610372565b6002805482919060ff19166001836004811115610c6f57610c6f610cc7565b021790555050565b600080546001600160a01b038381166001600160a01b0319831681178455604051919092169283917f8be0079c531659141344cd1fd0a4f28419497f9722a3daafe3b4186f6b6457e09190a35050565b634e487b7160e01b600052602160045260246000fd5b6020810160058310610cff57634e487b7160e01b600052602160045260246000fd5b91905290565b600060208284031215610d1757600080fd5b81356001600160a01b0381168114610d2e57600080fd5b9392505050565b600060208284031215610d4757600080fd5b5035919050565b80356001600160801b031981168114610d6657600080fd5b919050565b803567ffffffffffffffff81168114610d6657600080fd5b634e487b7160e01b600052604160045260246000fd5b60008060008060808587031215610daf57600080fd5b610db885610d4e565b9350610dc660208601610d6b565b9250610dd460408601610d6b565b9150606085013567ffffffffffffffff80821115610df157600080fd5b818701915087601f830112610e0557600080fd5b813581811115610e1757610e17610d83565b604051601f8201601f19908116603f01168101908382118183101715610e3f57610e3f610d83565b816040528281528a6020848701011115610e5857600080fd5b82602086016020830137600060208483010152809550505050505092959194509250565b803560ff81168114610d6657600080fd5b60008060008060808587031215610ea357600080fd5b84359350610eb360208601610d4e565b9250610ec160408601610e7c565b9150610ecf60608601610e7c565b905092959194509250565b600080600060608486031215610eef57600080fd5b610ef884610d4e565b9250610f0660208501610e7c565b9150610f1460408501610e7c565b90509250925092565b634e487b7160e01b600052601160045260246000fd5b6000816000190483118215151615610f4d57610f4d610f1d565b500290565b600060208083528351808285015260005b81811015610f7f57858101830151858201604001528201610f63565b81811115610f91576000604083870101525b50601f01601f1916929092016040019392505050565b600065ffffffffffff80831681811415610fc357610fc3610f1d565b6001019392505050565b6020808252818101527f4f776e61626c653a2063616c6c6572206973206e6f7420746865206f776e6572604082015260600190565b634e487b7160e01b600052603260045260246000fd5b600060001982141561102c5761102c610f1d565b5060010190565b60008261105057634e487b7160e01b600052601260045260246000fd5b500490565b60008282101561106757611067610f1d565b500390565b6000821982111561107f5761107f610f1d565b50019056fea264697066735822122042470f9a847257b484406471e4afdcaeacfaf3d9fdfb1b63fa3a60597c876c9964736f6c634300080a0033",
    "linkReferences": {}
  }
}